{
  "_format": "hh-sol-artifact-1",
  "contractName": "HyperlendPairRegistry",
  "sourceName": "contracts/HyperlendPairRegistry.sol",
  "abi": [
    {
      "inputs": [
        {
          "internalType": "address",
          "name": "_ownerAddress",
          "type": "address"
        },
        {
          "internalType": "address[]",
          "name": "_initialDeployers",
          "type": "address[]"
        }
      ],
      "stateMutability": "nonpayable",
      "type": "constructor"
    },
    {
      "inputs": [],
      "name": "AddressIsNotDeployer",
      "type": "error"
    },
    {
      "inputs": [],
      "name": "NameMustBeUnique",
      "type": "error"
    },
    {
      "anonymous": false,
      "inputs": [
        {
          "indexed": false,
          "internalType": "address",
          "name": "pairAddress",
          "type": "address"
        }
      ],
      "name": "AddPair",
      "type": "event"
    },
    {
      "anonymous": false,
      "inputs": [
        {
          "indexed": true,
          "internalType": "address",
          "name": "previousOwner",
          "type": "address"
        },
        {
          "indexed": true,
          "internalType": "address",
          "name": "newOwner",
          "type": "address"
        }
      ],
      "name": "OwnershipTransferStarted",
      "type": "event"
    },
    {
      "anonymous": false,
      "inputs": [
        {
          "indexed": true,
          "internalType": "address",
          "name": "previousOwner",
          "type": "address"
        },
        {
          "indexed": true,
          "internalType": "address",
          "name": "newOwner",
          "type": "address"
        }
      ],
      "name": "OwnershipTransferred",
      "type": "event"
    },
    {
      "anonymous": false,
      "inputs": [
        {
          "indexed": false,
          "internalType": "address",
          "name": "deployer",
          "type": "address"
        },
        {
          "indexed": false,
          "internalType": "bool",
          "name": "_bool",
          "type": "bool"
        }
      ],
      "name": "SetDeployer",
      "type": "event"
    },
    {
      "inputs": [],
      "name": "acceptOwnership",
      "outputs": [],
      "stateMutability": "nonpayable",
      "type": "function"
    },
    {
      "inputs": [
        {
          "internalType": "address",
          "name": "_pairAddress",
          "type": "address"
        }
      ],
      "name": "addPair",
      "outputs": [],
      "stateMutability": "nonpayable",
      "type": "function"
    },
    {
      "inputs": [
        {
          "internalType": "uint256",
          "name": "",
          "type": "uint256"
        }
      ],
      "name": "deployedPairsArray",
      "outputs": [
        {
          "internalType": "address",
          "name": "",
          "type": "address"
        }
      ],
      "stateMutability": "view",
      "type": "function"
    },
    {
      "inputs": [
        {
          "internalType": "string",
          "name": "",
          "type": "string"
        }
      ],
      "name": "deployedPairsByName",
      "outputs": [
        {
          "internalType": "address",
          "name": "",
          "type": "address"
        }
      ],
      "stateMutability": "view",
      "type": "function"
    },
    {
      "inputs": [],
      "name": "deployedPairsLength",
      "outputs": [
        {
          "internalType": "uint256",
          "name": "",
          "type": "uint256"
        }
      ],
      "stateMutability": "view",
      "type": "function"
    },
    {
      "inputs": [
        {
          "internalType": "address",
          "name": "",
          "type": "address"
        }
      ],
      "name": "deployers",
      "outputs": [
        {
          "internalType": "bool",
          "name": "",
          "type": "bool"
        }
      ],
      "stateMutability": "view",
      "type": "function"
    },
    {
      "inputs": [],
      "name": "getAllPairAddresses",
      "outputs": [
        {
          "internalType": "address[]",
          "name": "_deployedPairsArray",
          "type": "address[]"
        }
      ],
      "stateMutability": "view",
      "type": "function"
    },
    {
      "inputs": [],
      "name": "owner",
      "outputs": [
        {
          "internalType": "address",
          "name": "",
          "type": "address"
        }
      ],
      "stateMutability": "view",
      "type": "function"
    },
    {
      "inputs": [],
      "name": "pendingOwner",
      "outputs": [
        {
          "internalType": "address",
          "name": "",
          "type": "address"
        }
      ],
      "stateMutability": "view",
      "type": "function"
    },
    {
      "inputs": [],
      "name": "renounceOwnership",
      "outputs": [],
      "stateMutability": "nonpayable",
      "type": "function"
    },
    {
      "inputs": [
        {
          "internalType": "address[]",
          "name": "_deployers",
          "type": "address[]"
        },
        {
          "internalType": "bool",
          "name": "_bool",
          "type": "bool"
        }
      ],
      "name": "setDeployers",
      "outputs": [],
      "stateMutability": "nonpayable",
      "type": "function"
    },
    {
      "inputs": [
        {
          "internalType": "address",
          "name": "newOwner",
          "type": "address"
        }
      ],
      "name": "transferOwnership",
      "outputs": [],
      "stateMutability": "nonpayable",
      "type": "function"
    }
  ],
  "bytecode": "0x6040608081523461012857610aeb908138038061001b81610143565b93843982019181818403126101285761003381610168565b926020918281015160018060401b039182821161012857019180601f8401121561012857825191821161012d5760059282841b908580610074818501610143565b8096815201928201019283116101285785809101915b838310610110575050505061009e3361017c565b60005b81518110156100f95780831b82018401516001600160a01b0316600090815260028552859020805460ff1916600117905560001981146100e3576001016100a1565b634e487b7160e01b600052601160045260246000fd5b846101038761017c565b5161092090816101cb8239f35b819061011b84610168565b815201910190859061008a565b600080fd5b634e487b7160e01b600052604160045260246000fd5b6040519190601f01601f191682016001600160401b0381118382101761012d57604052565b51906001600160a01b038216820361012857565b60018060a01b031990816001541660015560005460018060a01b038092168093821617600055167f8be0079c531659141344cd1fd0a4f28419497f9722a3daafe3b4186f6b6457e0600080a356fe60806040908082526004918236101561001757600080fd5b600092833560e01c9283631e3ad087146106755750826331c315df146106335782633668310014610614578263607b6d161461054f5782636a2385e814610511578263715018a6146104ac578263721819fc1461040a57826379ba50971461034a5782638da5cb5b14610322578263c2b7bbb61461014757508163e30c39781461011a575063f2fde38b146100ab57600080fd5b34610117576020366003190112610117576100c4610800565b6100cc6108a7565b600180546001600160a01b0319166001600160a01b0392831690811790915582549091167f38d16b8cac22d99fc7c124b9cd0de2d3fa1faef420bfe791d8c362d765e227008380a380f35b80fd5b90503461014357816003193601126101435760015490516001600160a01b039091168152602090f35b5080fd5b838234610143576020908160031936011261031e57610164610800565b903384526002835260ff81852054161561030f57600354680100000000000000008110156102fc5780600161019c920160035561081b565b81546001600160a01b0360039290921b82811b199091169482169081901b9490941790915581516306fdde0360e01b815285818881875afa9081156102f2578691610273575b508251918151928681818501956101fa818389610884565b81018b815203019020541661026357610242917f84f21453a36d947225b71844083d0755a7939b6c09162d5ced65f7cc0ac9d42c969786928551948593849251928391610884565b82019081520301902080546001600160a01b0319168317905551908152a180f35b825163e99b9f6160e01b81528790fd5b90503d8087833e61028481836107c8565b81019085818303126102ee5780519067ffffffffffffffff82116102ea570181601f820112156102ee578051906102ba82610868565b926102c7865194856107c8565b8284528783830101116102ea57906102e491878085019101610884565b876101e2565b8780fd5b8680fd5b83513d88823e3d90fd5b634e487b7160e01b855260418652602485fd5b5163eaffaa6560e01b81528490fd5b8280fd5b838234610143578160031936011261014357905490516001600160a01b039091168152602090f35b91503461031e578260031936011261031e57600154916001600160a01b039133838516036103b55750506001600160a01b031991821660015582543392811683178455167f8be0079c531659141344cd1fd0a4f28419497f9722a3daafe3b4186f6b6457e08380a380f35b906020608492519162461bcd60e51b8352820152602960248201527f4f776e61626c6532537465703a2063616c6c6572206973206e6f7420746865206044820152683732bb9037bbb732b960b91b6064820152fd5b9091503461031e57602036600319011261031e57803567ffffffffffffffff81116104a857366023820112156104a8578082013561044781610868565b90610454855192836107c8565b808252602082019236602483830101116102ee5781602097926024899301863783010152610489845192839251928391610884565b810191825290819003830190205490516001600160a01b039091168152f35b8380fd5b83346101175780600319360112610117576104c56108a7565b600180546001600160a01b03199081169091558154908116825581906001600160a01b03167f8be0079c531659141344cd1fd0a4f28419497f9722a3daafe3b4186f6b6457e08280a380f35b8382346101435760203660031901126101435760209160ff9082906001600160a01b0361053c610800565b1681526002855220541690519015158152f35b5082346101175780600319360112610117579080519182906003549182855260208095018093600384527fc2575a0e9e593c00f959f8c92f12db2869c3395a3b0502d05e2516446f71f85b90845b8181106105f757505050816105b39103826107c8565b83519485948186019282875251809352850193925b8281106105d757505050500390f35b83516001600160a01b0316855286955093810193928101926001016105c8565b82546001600160a01b03168452928801926001928301920161059d565b8382346101435781600319360112610143576020906003549051908152f35b9091503461031e57602036600319011261031e573591600354831015610117575061065f60209261081b565b60018060a01b0391549060031b1c169051908152f35b9084903461014357836003193601126101435780359367ffffffffffffffff8086116104a857366023870112156104a857858301359081116107b5578060051b956020916106c5838901886107c8565b865281860160248098830101913683116102ee578801905b828210610796575050508535801515809103610792576106fb6108a7565b60ff8116855b875181101561078e577f41ed586a736eb89bf4aa2dda45d4d9ee10968f05b6fcc12eeea28c1da138456c856001600160a01b038061073f858d6108ff565b51168a5260028752818a20805460ff19168617905561075e848c6108ff565b511681519081528587820152a1600019811461077c57600101610701565b634e487b7160e01b8752601186528887fd5b8680f35b8480fd5b81356001600160a01b03811681036102ea5781529083019083016106dd565b634e487b7160e01b845260418352602484fd5b90601f8019910116810190811067ffffffffffffffff8211176107ea57604052565b634e487b7160e01b600052604160045260246000fd5b600435906001600160a01b038216820361081657565b600080fd5b6003548110156108525760036000527fc2575a0e9e593c00f959f8c92f12db2869c3395a3b0502d05e2516446f71f85b0190600090565b634e487b7160e01b600052603260045260246000fd5b67ffffffffffffffff81116107ea57601f01601f191660200190565b60005b8381106108975750506000910152565b8181015183820152602001610887565b6000546001600160a01b031633036108bb57565b606460405162461bcd60e51b815260206004820152602060248201527f4f776e61626c653a2063616c6c6572206973206e6f7420746865206f776e65726044820152fd5b80518210156108525760209160051b01019056fea164736f6c6343000813000a",
  "linkReferences": {},
  "deployedLinkReferences": {}
}